{
	"_format": "hh-sol-artifact-1",
	"contractName": "LogProof",
	"sourceName": "contracts/LogProof.sol",
	"abi": [
		{
			"inputs": [],
			"stateMutability": "nonpayable",
			"type": "constructor"
		},
		{
			"anonymous": false,
			"inputs": [
				{
					"indexed": true,
					"internalType": "bytes32",
					"name": "proof",
					"type": "bytes32"
				}
			],
			"name": "NewLogNotarized",
			"type": "event"
		},
		{
			"inputs": [
				{
					"internalType": "string",
					"name": "_hashInput",
					"type": "string"
				}
			],
			"name": "getProof",
			"outputs": [
				{
					"internalType": "bytes32",
					"name": "",
					"type": "bytes32"
				}
			],
			"stateMutability": "pure",
			"type": "function"
		},
		{
			"inputs": [
				{
					"internalType": "string",
					"name": "_hashInput",
					"type": "string"
				}
			],
			"name": "notarize",
			"outputs": [
				{
					"internalType": "bytes32",
					"name": "",
					"type": "bytes32"
				}
			],
			"stateMutability": "nonpayable",
			"type": "function"
		},
		{
			"inputs": [],
			"name": "owner",
			"outputs": [
				{
					"internalType": "address",
					"name": "",
					"type": "address"
				}
			],
			"stateMutability": "view",
			"type": "function"
		},
		{
			"inputs": [
				{
					"internalType": "uint256",
					"name": "",
					"type": "uint256"
				}
			],
			"name": "proofs",
			"outputs": [
				{
					"internalType": "bytes32",
					"name": "",
					"type": "bytes32"
				}
			],
			"stateMutability": "view",
			"type": "function"
		},
		{
			"inputs": [
				{
					"internalType": "string",
					"name": "_hashInput",
					"type": "string"
				}
			],
			"name": "verify",
			"outputs": [
				{
					"internalType": "bool",
					"name": "",
					"type": "bool"
				}
			],
			"stateMutability": "view",
			"type": "function"
		}
	],
	"bytecode": "0x60a060405234801561001057600080fd5b503373ffffffffffffffffffffffffffffffffffffffff1660808173ffffffffffffffffffffffffffffffffffffffff16815250506080516107f36100676000396000818161013e015261021801526107f36000f3fe608060405234801561001057600080fd5b50600436106100575760003560e01c80637183616c1461005c5780638da5cb5b1461008c5780639ddaf5aa146100aa578063bb9c6c3e146100da578063d57763a11461010a575b600080fd5b61007660048036038101906100719190610496565b61013a565b60405161008391906104f8565b60405180910390f35b610094610216565b6040516100a19190610554565b60405180910390f35b6100c460048036038101906100bf91906105a5565b61023a565b6040516100d191906104f8565b60405180910390f35b6100f460048036038101906100ef9190610496565b61025e565b60405161010191906105ed565b60405180910390f35b610124600480360381019061011f9190610496565b61027d565b60405161013191906104f8565b60405180910390f35b60007f000000000000000000000000000000000000000000000000000000000000000073ffffffffffffffffffffffffffffffffffffffff163373ffffffffffffffffffffffffffffffffffffffff16146101ca576040517f08c379a00000000000000000000000000000000000000000000000000000000081526004016101c190610665565b60405180910390fd5b60006101d58361027d565b90506101e0816102ad565b807f111a242f04a500b8552a72b960f5b78e4d999f2b10b11b0fff509d91d259c3df60405160405180910390a280915050919050565b7f000000000000000000000000000000000000000000000000000000000000000081565b6000818154811061024a57600080fd5b906000526020600020016000915090505481565b60008061026a8361027d565b9050610275816102d9565b915050919050565b60008160405160200161029091906106ff565b604051602081830303815290604052805190602001209050919050565b600081908060018154018082558091505060019003906000526020600020016000909190919091505550565b600080600090505b60008054905081101561033157826000828154811061030357610302610716565b5b9060005260206000200154141561031e576001915050610337565b808061032990610774565b9150506102e1565b50600090505b919050565b6000604051905090565b600080fd5b600080fd5b600080fd5b600080fd5b6000601f19601f8301169050919050565b7f4e487b7100000000000000000000000000000000000000000000000000000000600052604160045260246000fd5b6103a38261035a565b810181811067ffffffffffffffff821117156103c2576103c161036b565b5b80604052505050565b60006103d561033c565b90506103e1828261039a565b919050565b600067ffffffffffffffff8211156104015761040061036b565b5b61040a8261035a565b9050602081019050919050565b82818337600083830152505050565b6000610439610434846103e6565b6103cb565b90508281526020810184848401111561045557610454610355565b5b610460848285610417565b509392505050565b600082601f83011261047d5761047c610350565b5b813561048d848260208601610426565b91505092915050565b6000602082840312156104ac576104ab610346565b5b600082013567ffffffffffffffff8111156104ca576104c961034b565b5b6104d684828501610468565b91505092915050565b6000819050919050565b6104f2816104df565b82525050565b600060208201905061050d60008301846104e9565b92915050565b600073ffffffffffffffffffffffffffffffffffffffff82169050919050565b600061053e82610513565b9050919050565b61054e81610533565b82525050565b60006020820190506105696000830184610545565b92915050565b6000819050919050565b6105828161056f565b811461058d57600080fd5b50565b60008135905061059f81610579565b92915050565b6000602082840312156105bb576105ba610346565b5b60006105c984828501610590565b91505092915050565b60008115159050919050565b6105e7816105d2565b82525050565b600060208201905061060260008301846105de565b92915050565b600082825260208201905092915050565b7f4f6e6c7920746865206f776e65722063616e206e6f746172697a650000000000600082015250565b600061064f601b83610608565b915061065a82610619565b602082019050919050565b6000602082019050818103600083015261067e81610642565b9050919050565b600081519050919050565b600081905092915050565b60005b838110156106b957808201518184015260208101905061069e565b838111156106c8576000848401525b50505050565b60006106d982610685565b6106e38185610690565b93506106f381856020860161069b565b80840191505092915050565b600061070b82846106ce565b915081905092915050565b7f4e487b7100000000000000000000000000000000000000000000000000000000600052603260045260246000fd5b7f4e487b7100000000000000000000000000000000000000000000000000000000600052601160045260246000fd5b600061077f8261056f565b91507fffffffffffffffffffffffffffffffffffffffffffffffffffffffffffffffff8214156107b2576107b1610745565b5b60018201905091905056fea26469706673582212200f5ca35b62161465ee9d3dcfb504a10b6468190cf5fd4deda049436c4fc73ac964736f6c63430008090033",
	"linkReferences": {},
	"deployedLinkReferences": {}
}